{
  "contractName": "TweetFactory",
  "abi": [
    {
      "anonymous": false,
      "inputs": [
        {
          "indexed": false,
          "internalType": "uint256",
          "name": "id",
          "type": "uint256"
        },
        {
          "indexed": false,
          "internalType": "string",
          "name": "content",
          "type": "string"
        },
        {
          "indexed": false,
          "internalType": "uint256",
          "name": "createdAt",
          "type": "uint256"
        },
        {
          "indexed": false,
          "internalType": "address",
          "name": "onwer",
          "type": "address"
        }
      ],
      "name": "NewTweet",
      "type": "event"
    },
    {
      "anonymous": false,
      "inputs": [
        {
          "indexed": true,
          "internalType": "address",
          "name": "previousOwner",
          "type": "address"
        },
        {
          "indexed": true,
          "internalType": "address",
          "name": "newOwner",
          "type": "address"
        }
      ],
      "name": "OwnershipTransferred",
      "type": "event"
    },
    {
      "inputs": [],
      "name": "owner",
      "outputs": [
        {
          "internalType": "address",
          "name": "",
          "type": "address"
        }
      ],
      "stateMutability": "view",
      "type": "function",
      "constant": true
    },
    {
      "inputs": [],
      "name": "renounceOwnership",
      "outputs": [],
      "stateMutability": "nonpayable",
      "type": "function"
    },
    {
      "inputs": [
        {
          "internalType": "address",
          "name": "newOwner",
          "type": "address"
        }
      ],
      "name": "transferOwnership",
      "outputs": [],
      "stateMutability": "nonpayable",
      "type": "function"
    },
    {
      "inputs": [
        {
          "internalType": "uint256",
          "name": "",
          "type": "uint256"
        }
      ],
      "name": "tweets",
      "outputs": [
        {
          "internalType": "string",
          "name": "content",
          "type": "string"
        },
        {
          "internalType": "uint256",
          "name": "createdAt",
          "type": "uint256"
        },
        {
          "internalType": "address",
          "name": "owner",
          "type": "address"
        }
      ],
      "stateMutability": "view",
      "type": "function",
      "constant": true
    },
    {
      "inputs": [],
      "name": "withdraw",
      "outputs": [],
      "stateMutability": "nonpayable",
      "type": "function"
    },
    {
      "inputs": [
        {
          "internalType": "string",
          "name": "_content",
          "type": "string"
        }
      ],
      "name": "createTweet",
      "outputs": [],
      "stateMutability": "nonpayable",
      "type": "function"
    },
    {
      "inputs": [],
      "name": "readTweets",
      "outputs": [
        {
          "components": [
            {
              "internalType": "string",
              "name": "content",
              "type": "string"
            },
            {
              "internalType": "uint256",
              "name": "createdAt",
              "type": "uint256"
            },
            {
              "internalType": "address",
              "name": "owner",
              "type": "address"
            }
          ],
          "internalType": "struct TweetFactory.Tweet[]",
          "name": "",
          "type": "tuple[]"
        }
      ],
      "stateMutability": "view",
      "type": "function",
      "constant": true
    },
    {
      "inputs": [
        {
          "internalType": "uint256",
          "name": "_id",
          "type": "uint256"
        },
        {
          "internalType": "string",
          "name": "_content",
          "type": "string"
        }
      ],
      "name": "updateTweet",
      "outputs": [],
      "stateMutability": "nonpayable",
      "type": "function"
    },
    {
      "inputs": [
        {
          "internalType": "uint256",
          "name": "_id",
          "type": "uint256"
        }
      ],
      "name": "deleteTweet",
      "outputs": [],
      "stateMutability": "nonpayable",
      "type": "function"
    }
  ],
  "bytecode": "0x60806040526010600155600154600a6200001a91906200014f565b60025566038d7ea4c680006003553480156200003557600080fd5b50600062000048620000ec60201b60201c565b9050806000806101000a81548173ffffffffffffffffffffffffffffffffffffffff021916908373ffffffffffffffffffffffffffffffffffffffff1602179055508073ffffffffffffffffffffffffffffffffffffffff16600073ffffffffffffffffffffffffffffffffffffffff167f8be0079c531659141344cd1fd0a4f28419497f9722a3daafe3b4186f6b6457e060405160405180910390a350620002d2565b600033905090565b6000808291508390505b600185111562000146578086048111156200011e576200011d62000296565b5b60018516156200012e5780820291505b80810290506200013e85620002c5565b9450620000fe565b94509492505050565b60006200015c826200028c565b915062000169836200028c565b9250620001987fffffffffffffffffffffffffffffffffffffffffffffffffffffffffffffffff8484620001a0565b905092915050565b600082620001b2576001905062000285565b81620001c2576000905062000285565b8160018114620001db5760028114620001e6576200021c565b600191505062000285565b60ff841115620001fb57620001fa62000296565b5b8360020a91508482111562000215576200021462000296565b5b5062000285565b5060208310610133831016604e8410600b8410161715620002565782820a90508381111562000250576200024f62000296565b5b62000285565b620002658484846001620000f4565b925090508184048111156200027f576200027e62000296565b5b81810290505b9392505050565b6000819050919050565b7f4e487b7100000000000000000000000000000000000000000000000000000000600052601160045260246000fd5b60008160011c9050919050565b611bbf80620002e26000396000f3fe608060405234801561001057600080fd5b50600436106100935760003560e01c80637c9cd2bc116100665780637c9cd2bc146100e45780638da5cb5b14610100578063e8d857b01461011e578063f2fde38b14610150578063f3c6a42b1461016c57610093565b80633ccfd60b146100985780635775912a146100a2578063715018a6146100be5780637c0aa77a146100c8575b600080fd5b6100a061018a565b005b6100bc60048036038101906100b791906113c4565b61025c565b005b6100c6610580565b005b6100e260048036038101906100dd91906113ed565b6106ba565b005b6100fe60048036038101906100f99190611383565b610b31565b005b610108610d01565b6040516101159190611635565b60405180910390f35b610138600480360381019061013391906113c4565b610d2a565b60405161014793929190611672565b60405180910390f35b61016a6004803603810190610165919061135a565b610e0c565b005b610174610fb5565b6040516101819190611650565b60405180910390f35b610192611106565b73ffffffffffffffffffffffffffffffffffffffff166101b0610d01565b73ffffffffffffffffffffffffffffffffffffffff1614610206576040517f08c379a00000000000000000000000000000000000000000000000000000000081526004016101fd906116d0565b60405180910390fd5b6000610210610d01565b90508073ffffffffffffffffffffffffffffffffffffffff166108fc479081150290604051600060405180830381858888f19350505050158015610258573d6000803e3d6000fd5b5050565b803373ffffffffffffffffffffffffffffffffffffffff166006600083815260200190815260200160002060009054906101000a900473ffffffffffffffffffffffffffffffffffffffff1673ffffffffffffffffffffffffffffffffffffffff16146102fe576040517f08c379a00000000000000000000000000000000000000000000000000000000081526004016102f5906116f0565b60405180910390fd5b600560003373ffffffffffffffffffffffffffffffffffffffff1673ffffffffffffffffffffffffffffffffffffffff168152602001908152602001600020600081548092919061034e90611920565b919050555060008290505b600160048054905061036b919061186e565b8110156104b55760046001826103819190611818565b815481106103b8577f4e487b7100000000000000000000000000000000000000000000000000000000600052603260045260246000fd5b906000526020600020906003020160048281548110610400577f4e487b7100000000000000000000000000000000000000000000000000000000600052603260045260246000fd5b906000526020600020906003020160008201816000019080546104229061194a565b61042d92919061110e565b50600182015481600101556002820160009054906101000a900473ffffffffffffffffffffffffffffffffffffffff168160020160006101000a81548173ffffffffffffffffffffffffffffffffffffffff021916908373ffffffffffffffffffffffffffffffffffffffff16021790555090505080806104ad906119ad565b915050610359565b5060048054806104ee577f4e487b7100000000000000000000000000000000000000000000000000000000600052603160045260246000fd5b600190038181906000526020600020906003020160008082016000610513919061119b565b60018201600090556002820160006101000a81549073ffffffffffffffffffffffffffffffffffffffff0219169055505090556006600083815260200190815260200160002060006101000a81549073ffffffffffffffffffffffffffffffffffffffff02191690555050565b610588611106565b73ffffffffffffffffffffffffffffffffffffffff166105a6610d01565b73ffffffffffffffffffffffffffffffffffffffff16146105fc576040517f08c379a00000000000000000000000000000000000000000000000000000000081526004016105f3906116d0565b60405180910390fd5b600073ffffffffffffffffffffffffffffffffffffffff1660008054906101000a900473ffffffffffffffffffffffffffffffffffffffff1673ffffffffffffffffffffffffffffffffffffffff167f8be0079c531659141344cd1fd0a4f28419497f9722a3daafe3b4186f6b6457e060405160405180910390a360008060006101000a81548173ffffffffffffffffffffffffffffffffffffffff021916908373ffffffffffffffffffffffffffffffffffffffff160217905550565b823373ffffffffffffffffffffffffffffffffffffffff166006600083815260200190815260200160002060009054906101000a900473ffffffffffffffffffffffffffffffffffffffff1673ffffffffffffffffffffffffffffffffffffffff161461075c576040517f08c379a0000000000000000000000000000000000000000000000000000000008152600401610753906116f0565b60405180910390fd5b600060048581548110610798577f4e487b7100000000000000000000000000000000000000000000000000000000600052603260045260246000fd5b90600052602060002090600302016040518060600160405290816000820180546107c19061194a565b80601f01602080910402602001604051908101604052809291908181526020018280546107ed9061194a565b801561083a5780601f1061080f5761010080835404028352916020019161083a565b820191906000526020600020905b81548152906001019060200180831161081d57829003601f168201915b50505050508152602001600182015481526020016002820160009054906101000a900473ffffffffffffffffffffffffffffffffffffffff1673ffffffffffffffffffffffffffffffffffffffff1673ffffffffffffffffffffffffffffffffffffffff1681525050905083838080601f016020809104026020016040519081016040528093929190818152602001838380828437600081840152601f19601f8201169050808301925050505050505081600001819052504281602001818152505060008590505b6001600480549050610914919061186e565b811015610a5e57600460018261092a9190611818565b81548110610961577f4e487b7100000000000000000000000000000000000000000000000000000000600052603260045260246000fd5b9060005260206000209060030201600482815481106109a9577f4e487b7100000000000000000000000000000000000000000000000000000000600052603260045260246000fd5b906000526020600020906003020160008201816000019080546109cb9061194a565b6109d692919061110e565b50600182015481600101556002820160009054906101000a900473ffffffffffffffffffffffffffffffffffffffff168160020160006101000a81548173ffffffffffffffffffffffffffffffffffffffff021916908373ffffffffffffffffffffffffffffffffffffffff1602179055509050508080610a56906119ad565b915050610902565b508060046001600480549050610a74919061186e565b81548110610aab577f4e487b7100000000000000000000000000000000000000000000000000000000600052603260045260246000fd5b90600052602060002090600302016000820151816000019080519060200190610ad59291906111db565b506020820151816001015560408201518160020160006101000a81548173ffffffffffffffffffffffffffffffffffffffff021916908373ffffffffffffffffffffffffffffffffffffffff1602179055509050505050505050565b6000429050600460405180606001604052808481526020018381526020013373ffffffffffffffffffffffffffffffffffffffff1681525090806001815401808255809150506001900390600052602060002090600302016000909190919091506000820151816000019080519060200190610bae9291906111db565b506020820151816001015560408201518160020160006101000a81548173ffffffffffffffffffffffffffffffffffffffff021916908373ffffffffffffffffffffffffffffffffffffffff160217905550505060006001600480549050610c16919061186e565b9050336006600083815260200190815260200160002060006101000a81548173ffffffffffffffffffffffffffffffffffffffff021916908373ffffffffffffffffffffffffffffffffffffffff160217905550600560003373ffffffffffffffffffffffffffffffffffffffff1673ffffffffffffffffffffffffffffffffffffffff1681526020019081526020016000206000815480929190610cba906119ad565b91905055507f771926afdfab46f6aae3d52801fbc1ec61d558f3a4983c5400fe5aee5ceb1ebb81848433604051610cf49493929190611710565b60405180910390a1505050565b60008060009054906101000a900473ffffffffffffffffffffffffffffffffffffffff16905090565b60048181548110610d3a57600080fd5b9060005260206000209060030201600091509050806000018054610d5d9061194a565b80601f0160208091040260200160405190810160405280929190818152602001828054610d899061194a565b8015610dd65780601f10610dab57610100808354040283529160200191610dd6565b820191906000526020600020905b815481529060010190602001808311610db957829003601f168201915b5050505050908060010154908060020160009054906101000a900473ffffffffffffffffffffffffffffffffffffffff16905083565b610e14611106565b73ffffffffffffffffffffffffffffffffffffffff16610e32610d01565b73ffffffffffffffffffffffffffffffffffffffff1614610e88576040517f08c379a0000000000000000000000000000000000000000000000000000000008152600401610e7f906116d0565b60405180910390fd5b600073ffffffffffffffffffffffffffffffffffffffff168173ffffffffffffffffffffffffffffffffffffffff161415610ef8576040517f08c379a0000000000000000000000000000000000000000000000000000000008152600401610eef906116b0565b60405180910390fd5b8073ffffffffffffffffffffffffffffffffffffffff1660008054906101000a900473ffffffffffffffffffffffffffffffffffffffff1673ffffffffffffffffffffffffffffffffffffffff167f8be0079c531659141344cd1fd0a4f28419497f9722a3daafe3b4186f6b6457e060405160405180910390a3806000806101000a81548173ffffffffffffffffffffffffffffffffffffffff021916908373ffffffffffffffffffffffffffffffffffffffff16021790555050565b60606004805480602002602001604051908101604052809291908181526020016000905b828210156110fd578382906000526020600020906003020160405180606001604052908160008201805461100c9061194a565b80601f01602080910402602001604051908101604052809291908181526020018280546110389061194a565b80156110855780601f1061105a57610100808354040283529160200191611085565b820191906000526020600020905b81548152906001019060200180831161106857829003601f168201915b50505050508152602001600182015481526020016002820160009054906101000a900473ffffffffffffffffffffffffffffffffffffffff1673ffffffffffffffffffffffffffffffffffffffff1673ffffffffffffffffffffffffffffffffffffffff168152505081526020019060010190610fd9565b50505050905090565b600033905090565b82805461111a9061194a565b90600052602060002090601f01602090048101928261113c576000855561118a565b82601f1061114d578054855561118a565b8280016001018555821561118a57600052602060002091601f016020900482015b8281111561118957825482559160010191906001019061116e565b5b5090506111979190611261565b5090565b5080546111a79061194a565b6000825580601f106111b957506111d8565b601f0160209004906000526020600020908101906111d79190611261565b5b50565b8280546111e79061194a565b90600052602060002090601f0160209004810192826112095760008555611250565b82601f1061122257805160ff1916838001178555611250565b82800160010185558215611250579182015b8281111561124f578251825591602001919060010190611234565b5b50905061125d9190611261565b5090565b5b8082111561127a576000816000905550600101611262565b5090565b600061129161128c84611781565b61175c565b9050828152602081018484840111156112a957600080fd5b6112b48482856118de565b509392505050565b6000813590506112cb81611b5b565b92915050565b60008083601f8401126112e357600080fd5b8235905067ffffffffffffffff8111156112fc57600080fd5b60208301915083600182028301111561131457600080fd5b9250929050565b600082601f83011261132c57600080fd5b813561133c84826020860161127e565b91505092915050565b60008135905061135481611b72565b92915050565b60006020828403121561136c57600080fd5b600061137a848285016112bc565b91505092915050565b60006020828403121561139557600080fd5b600082013567ffffffffffffffff8111156113af57600080fd5b6113bb8482850161131b565b91505092915050565b6000602082840312156113d657600080fd5b60006113e484828501611345565b91505092915050565b60008060006040848603121561140257600080fd5b600061141086828701611345565b935050602084013567ffffffffffffffff81111561142d57600080fd5b611439868287016112d1565b92509250509250925092565b600061145183836115c7565b905092915050565b611462816118a2565b82525050565b611471816118a2565b82525050565b6000611482826117c2565b61148c81856117e5565b93508360208202850161149e856117b2565b8060005b858110156114da57848403895281516114bb8582611445565b94506114c6836117d8565b925060208a019950506001810190506114a2565b50829750879550505050505092915050565b60006114f7826117cd565b61150181856117f6565b93506115118185602086016118ed565b61151a81611a83565b840191505092915050565b6000611530826117cd565b61153a8185611807565b935061154a8185602086016118ed565b61155381611a83565b840191505092915050565b600061156b602683611807565b915061157682611a94565b604082019050919050565b600061158e602083611807565b915061159982611ae3565b602082019050919050565b60006115b1602283611807565b91506115bc82611b0c565b604082019050919050565b600060608301600083015184820360008601526115e482826114ec565b91505060208301516115f96020860182611617565b50604083015161160c6040860182611459565b508091505092915050565b611620816118d4565b82525050565b61162f816118d4565b82525050565b600060208201905061164a6000830184611468565b92915050565b6000602082019050818103600083015261166a8184611477565b905092915050565b6000606082019050818103600083015261168c8186611525565b905061169b6020830185611626565b6116a86040830184611468565b949350505050565b600060208201905081810360008301526116c98161155e565b9050919050565b600060208201905081810360008301526116e981611581565b9050919050565b60006020820190508181036000830152611709816115a4565b9050919050565b60006080820190506117256000830187611626565b81810360208301526117378186611525565b90506117466040830185611626565b6117536060830184611468565b95945050505050565b6000611766611777565b9050611772828261197c565b919050565b6000604051905090565b600067ffffffffffffffff82111561179c5761179b611a54565b5b6117a582611a83565b9050602081019050919050565b6000819050602082019050919050565b600081519050919050565b600081519050919050565b6000602082019050919050565b600082825260208201905092915050565b600082825260208201905092915050565b600082825260208201905092915050565b6000611823826118d4565b915061182e836118d4565b9250827fffffffffffffffffffffffffffffffffffffffffffffffffffffffffffffffff03821115611863576118626119f6565b5b828201905092915050565b6000611879826118d4565b9150611884836118d4565b925082821015611897576118966119f6565b5b828203905092915050565b60006118ad826118b4565b9050919050565b600073ffffffffffffffffffffffffffffffffffffffff82169050919050565b6000819050919050565b82818337600083830152505050565b60005b8381101561190b5780820151818401526020810190506118f0565b8381111561191a576000848401525b50505050565b600061192b826118d4565b9150600082141561193f5761193e6119f6565b5b600182039050919050565b6000600282049050600182168061196257607f821691505b6020821081141561197657611975611a25565b5b50919050565b61198582611a83565b810181811067ffffffffffffffff821117156119a4576119a3611a54565b5b80604052505050565b60006119b8826118d4565b91507fffffffffffffffffffffffffffffffffffffffffffffffffffffffffffffffff8214156119eb576119ea6119f6565b5b600182019050919050565b7f4e487b7100000000000000000000000000000000000000000000000000000000600052601160045260246000fd5b7f4e487b7100000000000000000000000000000000000000000000000000000000600052602260045260246000fd5b7f4e487b7100000000000000000000000000000000000000000000000000000000600052604160045260246000fd5b6000601f19601f8301169050919050565b7f4f776e61626c653a206e6577206f776e657220697320746865207a65726f206160008201527f6464726573730000000000000000000000000000000000000000000000000000602082015250565b7f4f776e61626c653a2063616c6c6572206973206e6f7420746865206f776e6572600082015250565b7f4f6e6c79206f776e65722063616e2063616c6c20746869732066756e6374696f60008201527f6e21000000000000000000000000000000000000000000000000000000000000602082015250565b611b64816118a2565b8114611b6f57600080fd5b50565b611b7b816118d4565b8114611b8657600080fd5b5056fea2646970667358221220dc8850e1e925dd584e6d525f4d55281caabeb6e459070fd341735fe51194306564736f6c63430008040033",
  "immutableReferences": {},
  "source": "// SPDX-License-Identifier: MIT\r\npragma solidity >=0.5.13 <0.9.0;\r\n\r\nimport \"@openzeppelin/contracts/access/Ownable.sol\";\r\n\r\n\r\n/**\r\n @title TweetFactory\r\n @author Van Tien NGUYEN\r\n @dev A contract dedicated to the creation of new tweet in the decentralised light-Twitter\r\n */\r\ncontract TweetFactory is Ownable{\r\n\r\n    event NewTweet(uint256 id, string content, uint256 createdAt, address onwer);\r\n\r\n    uint256 digits = 16;\r\n\tuint256 idModulus = 10**digits;\r\n    uint fee = 0.001 ether;\r\n\r\n    struct Tweet {\r\n        string content;\r\n        uint256 createdAt;\r\n        address owner;\r\n    }\r\n\r\n    Tweet[] public tweets;\r\n\r\n    mapping(address => uint256) ownerTweetCount;\r\n    mapping(uint256 => address) tweetToOwner;\r\n\r\n\r\n    /**\r\n     * @dev A modifier that check the owner of a function\r\n     * @param _id the id of a tweet\r\n     */\r\n    modifier ownerOf(uint256 _id) {\r\n        require(\r\n            tweetToOwner[_id] == msg.sender,\r\n            \"Only owner can call this function!\"    \r\n        );\r\n\t\t_;\r\n\t}\r\n\r\n    /**\r\n\t * @dev A function that allows the owner of the smart contract to withdraw all the ethers stored\r\n\t */\r\n\tfunction withdraw() external onlyOwner {\r\n\t\taddress payable _owner = payable(owner());\r\n\t\t_owner.transfer(address(this).balance);\r\n\t}\r\n\r\n    /**\r\n     * @dev A function that creates a new tweet with content\r\n     * @param _content The content of the tweet\r\n     */\r\n    function createTweet(string memory _content) public {\r\n        // require(msg.value == fee);\r\n        uint256 createdAt = block.timestamp;\r\n        tweets.push(\r\n            Tweet(_content, createdAt, address(msg.sender))\r\n        );\r\n        \r\n        uint256 id = tweets.length - 1;\r\n        tweetToOwner[id] = msg.sender;\r\n        ownerTweetCount[msg.sender]++;\r\n        emit NewTweet(id, _content, createdAt, address(msg.sender));\r\n    }\r\n\r\n    /**\r\n     * @dev A function that return all tweets\r\n     */\r\n    function readTweets() public view returns (Tweet[] memory) {\r\n        return tweets;\r\n    }\r\n\r\n    /**\r\n     * @dev A function that allow the owner to update his (her) tweet\r\n     * @param _id The id of the tweet\r\n     * @param _content The new content will be updated\r\n     */\r\n    function updateTweet(uint256 _id, string calldata _content) public ownerOf(_id) {\r\n        // require(msg.value == fee);\r\n        Tweet memory updatedTweet = tweets[_id];\r\n        updatedTweet.content = _content;\r\n        updatedTweet.createdAt = block.timestamp;\r\n\r\n        for (uint i=_id; i<tweets.length-1; i++){\r\n            tweets[i] = tweets[i+1];\r\n        }\r\n        tweets[tweets.length-1] = updatedTweet;\r\n    }\r\n\r\n    /**\r\n     @dev A function that allow the owner to delete his (her) tweet\r\n     @param _id the id of the tweet\r\n     */\r\n    function deleteTweet(uint256 _id) public ownerOf(_id) {\r\n        // require(msg.value == fee);\r\n        ownerTweetCount[msg.sender]--;\r\n        for (uint i=_id; i<tweets.length-1; i++){\r\n            tweets[i] = tweets[i+1];\r\n        }\r\n        tweets.pop();\r\n        delete tweetToOwner[_id];\r\n    }\r\n}",
  "sourcePath": "/usr/src/app/contracts/TweetFactory.sol",
  "compiler": {
    "name": "solc",
    "version": "0.8.4+commit.c7e474f2.Emscripten.clang"
  },
  "schemaVersion": "3.4.1",
  "updatedAt": "2021-05-27T21:44:27.989Z",
  "networkType": "ethereum",
  "devdoc": {
    "author": "Van Tien NGUYEN",
    "details": "A contract dedicated to the creation of new tweet in the decentralised light-Twitter",
    "kind": "dev",
    "methods": {
      "createTweet(string)": {
        "details": "A function that creates a new tweet with content",
        "params": {
          "_content": "The content of the tweet"
        }
      },
      "deleteTweet(uint256)": {
        "details": "A function that allow the owner to delete his (her) tweet",
        "params": {
          "_id": "the id of the tweet"
        }
      },
      "owner()": {
        "details": "Returns the address of the current owner."
      },
      "readTweets()": {
        "details": "A function that return all tweets"
      },
      "renounceOwnership()": {
        "details": "Leaves the contract without owner. It will not be possible to call `onlyOwner` functions anymore. Can only be called by the current owner. NOTE: Renouncing ownership will leave the contract without an owner, thereby removing any functionality that is only available to the owner."
      },
      "transferOwnership(address)": {
        "details": "Transfers ownership of the contract to a new account (`newOwner`). Can only be called by the current owner."
      },
      "updateTweet(uint256,string)": {
        "details": "A function that allow the owner to update his (her) tweet",
        "params": {
          "_content": "The new content will be updated",
          "_id": "The id of the tweet"
        }
      },
      "withdraw()": {
        "details": "A function that allows the owner of the smart contract to withdraw all the ethers stored"
      }
    },
    "title": "TweetFactory",
    "version": 1
  },
  "userdoc": {
    "kind": "user",
    "methods": {},
    "version": 1
  }
}