{
  "contractName": "TweetFactory",
  "abi": [
    {
      "anonymous": false,
      "inputs": [
        {
          "indexed": false,
          "internalType": "uint256",
          "name": "id",
          "type": "uint256"
        },
        {
          "indexed": false,
          "internalType": "string",
          "name": "content",
          "type": "string"
        },
        {
          "indexed": false,
          "internalType": "uint256",
          "name": "createdAt",
          "type": "uint256"
        }
      ],
      "name": "NewTweet",
      "type": "event"
    },
    {
      "anonymous": false,
      "inputs": [
        {
          "indexed": true,
          "internalType": "address",
          "name": "previousOwner",
          "type": "address"
        },
        {
          "indexed": true,
          "internalType": "address",
          "name": "newOwner",
          "type": "address"
        }
      ],
      "name": "OwnershipTransferred",
      "type": "event"
    },
    {
      "inputs": [],
      "name": "owner",
      "outputs": [
        {
          "internalType": "address",
          "name": "",
          "type": "address"
        }
      ],
      "stateMutability": "view",
      "type": "function",
      "constant": true
    },
    {
      "inputs": [],
      "name": "renounceOwnership",
      "outputs": [],
      "stateMutability": "nonpayable",
      "type": "function"
    },
    {
      "inputs": [
        {
          "internalType": "address",
          "name": "newOwner",
          "type": "address"
        }
      ],
      "name": "transferOwnership",
      "outputs": [],
      "stateMutability": "nonpayable",
      "type": "function"
    },
    {
      "inputs": [
        {
          "internalType": "uint256",
          "name": "",
          "type": "uint256"
        }
      ],
      "name": "tweets",
      "outputs": [
        {
          "internalType": "string",
          "name": "content",
          "type": "string"
        },
        {
          "internalType": "uint256",
          "name": "createdAt",
          "type": "uint256"
        }
      ],
      "stateMutability": "view",
      "type": "function",
      "constant": true
    },
    {
      "inputs": [],
      "name": "withdraw",
      "outputs": [],
      "stateMutability": "nonpayable",
      "type": "function"
    },
    {
      "inputs": [
        {
          "internalType": "string",
          "name": "_content",
          "type": "string"
        }
      ],
      "name": "createTweet",
      "outputs": [],
      "stateMutability": "nonpayable",
      "type": "function"
    },
    {
      "inputs": [],
      "name": "readTweets",
      "outputs": [
        {
          "components": [
            {
              "internalType": "string",
              "name": "content",
              "type": "string"
            },
            {
              "internalType": "uint256",
              "name": "createdAt",
              "type": "uint256"
            }
          ],
          "internalType": "struct TweetFactory.Tweet[]",
          "name": "",
          "type": "tuple[]"
        }
      ],
      "stateMutability": "view",
      "type": "function",
      "constant": true
    },
    {
      "inputs": [
        {
          "internalType": "uint256",
          "name": "_id",
          "type": "uint256"
        },
        {
          "internalType": "string",
          "name": "_content",
          "type": "string"
        }
      ],
      "name": "updateTweet",
      "outputs": [],
      "stateMutability": "payable",
      "type": "function",
      "payable": true
    },
    {
      "inputs": [
        {
          "internalType": "uint256",
          "name": "_id",
          "type": "uint256"
        }
      ],
      "name": "deleteTweet",
      "outputs": [],
      "stateMutability": "payable",
      "type": "function",
      "payable": true
    }
  ],
  "bytecode": "0x60806040526010600155600154600a6200001a91906200014f565b60025566038d7ea4c680006003553480156200003557600080fd5b50600062000048620000ec60201b60201c565b9050806000806101000a81548173ffffffffffffffffffffffffffffffffffffffff021916908373ffffffffffffffffffffffffffffffffffffffff1602179055508073ffffffffffffffffffffffffffffffffffffffff16600073ffffffffffffffffffffffffffffffffffffffff167f8be0079c531659141344cd1fd0a4f28419497f9722a3daafe3b4186f6b6457e060405160405180910390a350620002d2565b600033905090565b6000808291508390505b600185111562000146578086048111156200011e576200011d62000296565b5b60018516156200012e5780820291505b80810290506200013e85620002c5565b9450620000fe565b94509492505050565b60006200015c826200028c565b915062000169836200028c565b9250620001987fffffffffffffffffffffffffffffffffffffffffffffffffffffffffffffffff8484620001a0565b905092915050565b600082620001b2576001905062000285565b81620001c2576000905062000285565b8160018114620001db5760028114620001e6576200021c565b600191505062000285565b60ff841115620001fb57620001fa62000296565b5b8360020a91508482111562000215576200021462000296565b5b5062000285565b5060208310610133831016604e8410600b8410161715620002565782820a90508381111562000250576200024f62000296565b5b62000285565b620002658484846001620000f4565b925090508184048111156200027f576200027e62000296565b5b81810290505b9392505050565b6000819050919050565b7f4e487b7100000000000000000000000000000000000000000000000000000000600052601160045260246000fd5b60008160011c9050919050565b6115f880620002e26000396000f3fe6080604052600436106100865760003560e01c80637c9cd2bc116100595780637c9cd2bc146100f15780638da5cb5b1461011a578063e8d857b014610145578063f2fde38b14610183578063f3c6a42b146101ac57610086565b80633ccfd60b1461008b5780635775912a146100a2578063715018a6146100be5780637c0aa77a146100d5575b600080fd5b34801561009757600080fd5b506100a06101d7565b005b6100bc60048036038101906100b79190610e91565b6102a9565b005b3480156100ca57600080fd5b506100d361044b565b005b6100ef60048036038101906100ea9190610eba565b610585565b005b3480156100fd57600080fd5b5061011860048036038101906101139190610e50565b6106e6565b005b34801561012657600080fd5b5061012f610851565b60405161013c91906110e0565b60405180910390f35b34801561015157600080fd5b5061016c60048036038101906101679190610e91565b61087a565b60405161017a92919061111d565b60405180910390f35b34801561018f57600080fd5b506101aa60048036038101906101a59190610e27565b610936565b005b3480156101b857600080fd5b506101c1610adf565b6040516101ce91906110fb565b60405180910390f35b6101df610bda565b73ffffffffffffffffffffffffffffffffffffffff166101fd610851565b73ffffffffffffffffffffffffffffffffffffffff1614610253576040517f08c379a000000000000000000000000000000000000000000000000000000000815260040161024a9061116d565b60405180910390fd5b600061025d610851565b90508073ffffffffffffffffffffffffffffffffffffffff166108fc479081150290604051600060405180830381858888f193505050501580156102a5573d6000803e3d6000fd5b5050565b803373ffffffffffffffffffffffffffffffffffffffff166006600083815260200190815260200160002060009054906101000a900473ffffffffffffffffffffffffffffffffffffffff1673ffffffffffffffffffffffffffffffffffffffff161461034b576040517f08c379a00000000000000000000000000000000000000000000000000000000081526004016103429061118d565b60405180910390fd5b600354341461035957600080fd5b600560003373ffffffffffffffffffffffffffffffffffffffff1673ffffffffffffffffffffffffffffffffffffffff16815260200190815260200160002060008154809291906103a990611359565b91905055506006600083815260200190815260200160002060006101000a81549073ffffffffffffffffffffffffffffffffffffffff02191690556004828154811061041e577f4e487b7100000000000000000000000000000000000000000000000000000000600052603260045260246000fd5b90600052602060002090600202016000808201600061043d9190610be2565b600182016000905550505050565b610453610bda565b73ffffffffffffffffffffffffffffffffffffffff16610471610851565b73ffffffffffffffffffffffffffffffffffffffff16146104c7576040517f08c379a00000000000000000000000000000000000000000000000000000000081526004016104be9061116d565b60405180910390fd5b600073ffffffffffffffffffffffffffffffffffffffff1660008054906101000a900473ffffffffffffffffffffffffffffffffffffffff1673ffffffffffffffffffffffffffffffffffffffff167f8be0079c531659141344cd1fd0a4f28419497f9722a3daafe3b4186f6b6457e060405160405180910390a360008060006101000a81548173ffffffffffffffffffffffffffffffffffffffff021916908373ffffffffffffffffffffffffffffffffffffffff160217905550565b823373ffffffffffffffffffffffffffffffffffffffff166006600083815260200190815260200160002060009054906101000a900473ffffffffffffffffffffffffffffffffffffffff1673ffffffffffffffffffffffffffffffffffffffff1614610627576040517f08c379a000000000000000000000000000000000000000000000000000000000815260040161061e9061118d565b60405180910390fd5b600354341461063557600080fd5b828260048681548110610671577f4e487b7100000000000000000000000000000000000000000000000000000000600052603260045260246000fd5b9060005260206000209060020201600001919061068f929190610c22565b5042600485815481106106cb577f4e487b7100000000000000000000000000000000000000000000000000000000600052603260045260246000fd5b90600052602060002090600202016001018190555050505050565b6000429050600460405180604001604052808481526020018381525090806001815401808255809150506001900390600052602060002090600202016000909190919091506000820151816000019080519060200190610747929190610ca8565b506020820151816001015550506000600160048054905061076891906112a7565b9050336006600083815260200190815260200160002060006101000a81548173ffffffffffffffffffffffffffffffffffffffff021916908373ffffffffffffffffffffffffffffffffffffffff160217905550600560003373ffffffffffffffffffffffffffffffffffffffff1673ffffffffffffffffffffffffffffffffffffffff168152602001908152602001600020600081548092919061080c906113e6565b91905055507fa183e64f1a8fb8e5ad7b2a33b9abe51dc676375226507aa2bce5fc379a7e4493818484604051610844939291906111ad565b60405180910390a1505050565b60008060009054906101000a900473ffffffffffffffffffffffffffffffffffffffff16905090565b6004818154811061088a57600080fd5b90600052602060002090600202016000915090508060000180546108ad90611383565b80601f01602080910402602001604051908101604052809291908181526020018280546108d990611383565b80156109265780601f106108fb57610100808354040283529160200191610926565b820191906000526020600020905b81548152906001019060200180831161090957829003601f168201915b5050505050908060010154905082565b61093e610bda565b73ffffffffffffffffffffffffffffffffffffffff1661095c610851565b73ffffffffffffffffffffffffffffffffffffffff16146109b2576040517f08c379a00000000000000000000000000000000000000000000000000000000081526004016109a99061116d565b60405180910390fd5b600073ffffffffffffffffffffffffffffffffffffffff168173ffffffffffffffffffffffffffffffffffffffff161415610a22576040517f08c379a0000000000000000000000000000000000000000000000000000000008152600401610a199061114d565b60405180910390fd5b8073ffffffffffffffffffffffffffffffffffffffff1660008054906101000a900473ffffffffffffffffffffffffffffffffffffffff1673ffffffffffffffffffffffffffffffffffffffff167f8be0079c531659141344cd1fd0a4f28419497f9722a3daafe3b4186f6b6457e060405160405180910390a3806000806101000a81548173ffffffffffffffffffffffffffffffffffffffff021916908373ffffffffffffffffffffffffffffffffffffffff16021790555050565b60606004805480602002602001604051908101604052809291908181526020016000905b82821015610bd15783829060005260206000209060020201604051806040016040529081600082018054610b3690611383565b80601f0160208091040260200160405190810160405280929190818152602001828054610b6290611383565b8015610baf5780601f10610b8457610100808354040283529160200191610baf565b820191906000526020600020905b815481529060010190602001808311610b9257829003601f168201915b5050505050815260200160018201548152505081526020019060010190610b03565b50505050905090565b600033905090565b508054610bee90611383565b6000825580601f10610c005750610c1f565b601f016020900490600052602060002090810190610c1e9190610d2e565b5b50565b828054610c2e90611383565b90600052602060002090601f016020900481019282610c505760008555610c97565b82601f10610c6957803560ff1916838001178555610c97565b82800160010185558215610c97579182015b82811115610c96578235825591602001919060010190610c7b565b5b509050610ca49190610d2e565b5090565b828054610cb490611383565b90600052602060002090601f016020900481019282610cd65760008555610d1d565b82601f10610cef57805160ff1916838001178555610d1d565b82800160010185558215610d1d579182015b82811115610d1c578251825591602001919060010190610d01565b5b509050610d2a9190610d2e565b5090565b5b80821115610d47576000816000905550600101610d2f565b5090565b6000610d5e610d5984611210565b6111eb565b905082815260208101848484011115610d7657600080fd5b610d81848285611317565b509392505050565b600081359050610d9881611594565b92915050565b60008083601f840112610db057600080fd5b8235905067ffffffffffffffff811115610dc957600080fd5b602083019150836001820283011115610de157600080fd5b9250929050565b600082601f830112610df957600080fd5b8135610e09848260208601610d4b565b91505092915050565b600081359050610e21816115ab565b92915050565b600060208284031215610e3957600080fd5b6000610e4784828501610d89565b91505092915050565b600060208284031215610e6257600080fd5b600082013567ffffffffffffffff811115610e7c57600080fd5b610e8884828501610de8565b91505092915050565b600060208284031215610ea357600080fd5b6000610eb184828501610e12565b91505092915050565b600080600060408486031215610ecf57600080fd5b6000610edd86828701610e12565b935050602084013567ffffffffffffffff811115610efa57600080fd5b610f0686828701610d9e565b92509250509250925092565b6000610f1e8383611085565b905092915050565b610f2f816112db565b82525050565b6000610f4082611251565b610f4a8185611274565b935083602082028501610f5c85611241565b8060005b85811015610f985784840389528151610f798582610f12565b9450610f8483611267565b925060208a01995050600181019050610f60565b50829750879550505050505092915050565b6000610fb58261125c565b610fbf8185611285565b9350610fcf818560208601611326565b610fd8816114bc565b840191505092915050565b6000610fee8261125c565b610ff88185611296565b9350611008818560208601611326565b611011816114bc565b840191505092915050565b6000611029602683611296565b9150611034826114cd565b604082019050919050565b600061104c602083611296565b91506110578261151c565b602082019050919050565b600061106f602283611296565b915061107a82611545565b604082019050919050565b600060408301600083015184820360008601526110a28282610faa565b91505060208301516110b760208601826110c2565b508091505092915050565b6110cb8161130d565b82525050565b6110da8161130d565b82525050565b60006020820190506110f56000830184610f26565b92915050565b600060208201905081810360008301526111158184610f35565b905092915050565b600060408201905081810360008301526111378185610fe3565b905061114660208301846110d1565b9392505050565b600060208201905081810360008301526111668161101c565b9050919050565b600060208201905081810360008301526111868161103f565b9050919050565b600060208201905081810360008301526111a681611062565b9050919050565b60006060820190506111c260008301866110d1565b81810360208301526111d48185610fe3565b90506111e360408301846110d1565b949350505050565b60006111f5611206565b905061120182826113b5565b919050565b6000604051905090565b600067ffffffffffffffff82111561122b5761122a61148d565b5b611234826114bc565b9050602081019050919050565b6000819050602082019050919050565b600081519050919050565b600081519050919050565b6000602082019050919050565b600082825260208201905092915050565b600082825260208201905092915050565b600082825260208201905092915050565b60006112b28261130d565b91506112bd8361130d565b9250828210156112d0576112cf61142f565b5b828203905092915050565b60006112e6826112ed565b9050919050565b600073ffffffffffffffffffffffffffffffffffffffff82169050919050565b6000819050919050565b82818337600083830152505050565b60005b83811015611344578082015181840152602081019050611329565b83811115611353576000848401525b50505050565b60006113648261130d565b915060008214156113785761137761142f565b5b600182039050919050565b6000600282049050600182168061139b57607f821691505b602082108114156113af576113ae61145e565b5b50919050565b6113be826114bc565b810181811067ffffffffffffffff821117156113dd576113dc61148d565b5b80604052505050565b60006113f18261130d565b91507fffffffffffffffffffffffffffffffffffffffffffffffffffffffffffffffff8214156114245761142361142f565b5b600182019050919050565b7f4e487b7100000000000000000000000000000000000000000000000000000000600052601160045260246000fd5b7f4e487b7100000000000000000000000000000000000000000000000000000000600052602260045260246000fd5b7f4e487b7100000000000000000000000000000000000000000000000000000000600052604160045260246000fd5b6000601f19601f8301169050919050565b7f4f776e61626c653a206e6577206f776e657220697320746865207a65726f206160008201527f6464726573730000000000000000000000000000000000000000000000000000602082015250565b7f4f776e61626c653a2063616c6c6572206973206e6f7420746865206f776e6572600082015250565b7f4f6e6c79206f776e65722063616e2063616c6c20746869732066756e6374696f60008201527f6e21000000000000000000000000000000000000000000000000000000000000602082015250565b61159d816112db565b81146115a857600080fd5b50565b6115b48161130d565b81146115bf57600080fd5b5056fea264697066735822122018e1ca68a6d591bb98b04b68a156a3da0029d25b9df77f4a8abef44d4447407964736f6c63430008040033",
  "immutableReferences": {},
  "source": "// SPDX-License-Identifier: MIT\r\npragma solidity >=0.5.13 <0.9.0;\r\n\r\nimport \"@openzeppelin/contracts/access/Ownable.sol\";\r\n\r\n\r\n/**\r\n @title TweetFactory\r\n @author Van Tien NGUYEN\r\n @dev A contract dedicated to the creation of new tweet in the decentralised light-Twitter\r\n */\r\ncontract TweetFactory is Ownable{\r\n\r\n    event NewTweet(uint256 id, string content, uint256 createdAt);\r\n\r\n    uint256 digits = 16;\r\n\tuint256 idModulus = 10**digits;\r\n    uint fee = 0.001 ether;\r\n\r\n    struct Tweet {\r\n        string content;\r\n        uint256 createdAt;\r\n    }\r\n\r\n    Tweet[] public tweets;\r\n\r\n    mapping(address => uint256) ownerTweetCount;\r\n    mapping(uint256 => address) tweetToOwner;\r\n\r\n\r\n    /**\r\n     * @dev A modifier that check the owner of a function\r\n     * @param _id the id of a tweet\r\n     */\r\n    modifier ownerOf(uint256 _id) {\r\n        require(\r\n            tweetToOwner[_id] == msg.sender,\r\n            \"Only owner can call this function!\"    \r\n        );\r\n\t\t_;\r\n\t}\r\n\r\n    /**\r\n\t * @dev A function that allows the owner of the smart contract to withdraw all the ethers stored\r\n\t */\r\n\tfunction withdraw() external onlyOwner {\r\n\t\taddress payable _owner = payable(owner());\r\n\t\t_owner.transfer(address(this).balance);\r\n\t}\r\n\r\n    /**\r\n     * @dev A function that creates a new tweet with content\r\n     * @param _content The content of the tweet\r\n     */\r\n    function createTweet(string memory _content) public {\r\n        uint256 createdAt = block.timestamp;\r\n        tweets.push(\r\n            Tweet(_content, createdAt)\r\n        );\r\n        \r\n        uint256 id = tweets.length - 1;\r\n        tweetToOwner[id] = msg.sender;\r\n        ownerTweetCount[msg.sender]++;\r\n        emit NewTweet(id, _content, createdAt);\r\n    }\r\n\r\n    /**\r\n     * @dev A function that return all tweets\r\n     */\r\n    function readTweets() public view returns (Tweet[] memory) {\r\n        return tweets;\r\n    }\r\n\r\n    /**\r\n     * @dev A function that allow the owner to update his (her) tweet\r\n     * @param _id The id of the tweet\r\n     * @param _content The new content will be updated\r\n     */\r\n    function updateTweet(uint256 _id, string calldata _content) external ownerOf(_id) payable {\r\n        require(msg.value == fee);\r\n        tweets[_id].content = _content;\r\n        tweets[_id].createdAt = block.timestamp;\r\n    }\r\n\r\n    /**\r\n     @dev A function that allow the owner to delete his (her) tweet\r\n     @param _id the id of the tweet\r\n     */\r\n    function deleteTweet(uint256 _id) external ownerOf(_id) payable {\r\n        require(msg.value == fee);\r\n        ownerTweetCount[msg.sender]--;\r\n        delete tweetToOwner[_id];\r\n        delete tweets[_id];\r\n    }\r\n}",
  "sourcePath": "C:/Users/hoang/Desktop/lethao/epita/courses/blockchain/final_project/twitter/contracts/TweetFactory.sol",
  "compiler": {
    "name": "solc",
    "version": "0.8.4+commit.c7e474f2.Emscripten.clang"
  },
  "schemaVersion": "3.4.1",
  "updatedAt": "2021-05-27T08:08:24.011Z",
  "networkType": "ethereum",
  "devdoc": {
    "author": "Van Tien NGUYEN",
    "details": "A contract dedicated to the creation of new tweet in the decentralised light-Twitter",
    "kind": "dev",
    "methods": {
      "createTweet(string)": {
        "details": "A function that creates a new tweet with content",
        "params": {
          "_content": "The content of the tweet"
        }
      },
      "deleteTweet(uint256)": {
        "details": "A function that allow the owner to delete his (her) tweet",
        "params": {
          "_id": "the id of the tweet"
        }
      },
      "owner()": {
        "details": "Returns the address of the current owner."
      },
      "readTweets()": {
        "details": "A function that return all tweets"
      },
      "renounceOwnership()": {
        "details": "Leaves the contract without owner. It will not be possible to call `onlyOwner` functions anymore. Can only be called by the current owner. NOTE: Renouncing ownership will leave the contract without an owner, thereby removing any functionality that is only available to the owner."
      },
      "transferOwnership(address)": {
        "details": "Transfers ownership of the contract to a new account (`newOwner`). Can only be called by the current owner."
      },
      "updateTweet(uint256,string)": {
        "details": "A function that allow the owner to update his (her) tweet",
        "params": {
          "_content": "The new content will be updated",
          "_id": "The id of the tweet"
        }
      },
      "withdraw()": {
        "details": "A function that allows the owner of the smart contract to withdraw all the ethers stored"
      }
    },
    "title": "TweetFactory",
    "version": 1
  },
  "userdoc": {
    "kind": "user",
    "methods": {},
    "version": 1
  }
}