{
  "contractName": "TweetFactory",
  "abi": [
    {
      "anonymous": false,
      "inputs": [
        {
          "indexed": false,
          "internalType": "uint256",
          "name": "id",
          "type": "uint256"
        },
        {
          "indexed": false,
          "internalType": "string",
          "name": "context",
          "type": "string"
        },
        {
          "indexed": false,
          "internalType": "uint256",
          "name": "createdAt",
          "type": "uint256"
        }
      ],
      "name": "NewTweet",
      "type": "event"
    },
    {
      "inputs": [
        {
          "internalType": "uint256",
          "name": "",
          "type": "uint256"
        }
      ],
      "name": "tweets",
      "outputs": [
        {
          "internalType": "string",
          "name": "context",
          "type": "string"
        },
        {
          "internalType": "uint256",
          "name": "createdAt",
          "type": "uint256"
        }
      ],
      "stateMutability": "view",
      "type": "function",
      "constant": true
    },
    {
      "inputs": [
        {
          "internalType": "string",
          "name": "_context",
          "type": "string"
        }
      ],
      "name": "createTweet",
      "outputs": [],
      "stateMutability": "nonpayable",
      "type": "function"
    },
    {
      "inputs": [],
      "name": "readTweets",
      "outputs": [
        {
          "components": [
            {
              "internalType": "string",
              "name": "context",
              "type": "string"
            },
            {
              "internalType": "uint256",
              "name": "createdAt",
              "type": "uint256"
            }
          ],
          "internalType": "struct TweetFactory.Tweet[]",
          "name": "",
          "type": "tuple[]"
        }
      ],
      "stateMutability": "view",
      "type": "function",
      "constant": true
    },
    {
      "inputs": [
        {
          "internalType": "uint256",
          "name": "_id",
          "type": "uint256"
        },
        {
          "internalType": "string",
          "name": "_context",
          "type": "string"
        }
      ],
      "name": "updateTweet",
      "outputs": [],
      "stateMutability": "nonpayable",
      "type": "function"
    },
    {
      "inputs": [
        {
          "internalType": "uint256",
          "name": "_id",
          "type": "uint256"
        }
      ],
      "name": "deleteTweet",
      "outputs": [],
      "stateMutability": "nonpayable",
      "type": "function"
    }
  ],
  "bytecode": "0x60806040526010600055600054600a6200001a91906200008c565b6001553480156200002a57600080fd5b506200020f565b6000808291508390505b600185111562000083578086048111156200005b576200005a620001d3565b5b60018516156200006b5780820291505b80810290506200007b8562000202565b94506200003b565b94509492505050565b60006200009982620001c9565b9150620000a683620001c9565b9250620000d57fffffffffffffffffffffffffffffffffffffffffffffffffffffffffffffffff8484620000dd565b905092915050565b600082620000ef5760019050620001c2565b81620000ff5760009050620001c2565b8160018114620001185760028114620001235762000159565b6001915050620001c2565b60ff841115620001385762000137620001d3565b5b8360020a915084821115620001525762000151620001d3565b5b50620001c2565b5060208310610133831016604e8410600b8410161715620001935782820a9050838111156200018d576200018c620001d3565b5b620001c2565b620001a2848484600162000031565b92509050818404811115620001bc57620001bb620001d3565b5b81810290505b9392505050565b6000819050919050565b7f4e487b7100000000000000000000000000000000000000000000000000000000600052601160045260246000fd5b60008160011c9050919050565b610f6b806200021f6000396000f3fe608060405234801561001057600080fd5b50600436106100575760003560e01c80635775912a1461005c5780637c0aa77a146100785780637c9cd2bc14610094578063e8d857b0146100b0578063f3c6a42b146100e1575b600080fd5b61007660048036038101906100719190610975565b6100ff565b005b610092600480360381019061008d919061099e565b610291565b005b6100ae60048036038101906100a99190610934565b6103e2565b005b6100ca60048036038101906100c59190610975565b61054d565b6040516100d8929190610b91565b60405180910390f35b6100e9610609565b6040516100f69190610b6f565b60405180910390f35b3373ffffffffffffffffffffffffffffffffffffffff166004600083815260200190815260200160002060009054906101000a900473ffffffffffffffffffffffffffffffffffffffff1673ffffffffffffffffffffffffffffffffffffffff16146101a0576040517f08c379a000000000000000000000000000000000000000000000000000000000815260040161019790610bc1565b60405180910390fd5b600360003373ffffffffffffffffffffffffffffffffffffffff1673ffffffffffffffffffffffffffffffffffffffff16815260200190815260200160002060008154809291906101f090610d5b565b91905055506004600082815260200190815260200160002060006101000a81549073ffffffffffffffffffffffffffffffffffffffff021916905560028181548110610265577f4e487b7100000000000000000000000000000000000000000000000000000000600052603260045260246000fd5b9060005260206000209060020201600080820160006102849190610704565b6001820160009055505050565b3373ffffffffffffffffffffffffffffffffffffffff166004600085815260200190815260200160002060009054906101000a900473ffffffffffffffffffffffffffffffffffffffff1673ffffffffffffffffffffffffffffffffffffffff1614610332576040517f08c379a000000000000000000000000000000000000000000000000000000000815260040161032990610bc1565b60405180910390fd5b81816002858154811061036e577f4e487b7100000000000000000000000000000000000000000000000000000000600052603260045260246000fd5b9060005260206000209060020201600001919061038c929190610744565b5042600284815481106103c8577f4e487b7100000000000000000000000000000000000000000000000000000000600052603260045260246000fd5b906000526020600020906002020160010181905550505050565b60004290506002604051806040016040528084815260200183815250908060018154018082558091505060019003906000526020600020906002020160009091909190915060008201518160000190805190602001906104439291906107ca565b50602082015181600101555050600060016002805490506104649190610cdb565b9050336004600083815260200190815260200160002060006101000a81548173ffffffffffffffffffffffffffffffffffffffff021916908373ffffffffffffffffffffffffffffffffffffffff160217905550600360003373ffffffffffffffffffffffffffffffffffffffff1673ffffffffffffffffffffffffffffffffffffffff168152602001908152602001600020600081548092919061050890610de8565b91905055507fa183e64f1a8fb8e5ad7b2a33b9abe51dc676375226507aa2bce5fc379a7e449381848460405161054093929190610be1565b60405180910390a1505050565b6002818154811061055d57600080fd5b906000526020600020906002020160009150905080600001805461058090610d85565b80601f01602080910402602001604051908101604052809291908181526020018280546105ac90610d85565b80156105f95780601f106105ce576101008083540402835291602001916105f9565b820191906000526020600020905b8154815290600101906020018083116105dc57829003601f168201915b5050505050908060010154905082565b60606002805480602002602001604051908101604052809291908181526020016000905b828210156106fb578382906000526020600020906002020160405180604001604052908160008201805461066090610d85565b80601f016020809104026020016040519081016040528092919081815260200182805461068c90610d85565b80156106d95780601f106106ae576101008083540402835291602001916106d9565b820191906000526020600020905b8154815290600101906020018083116106bc57829003601f168201915b505050505081526020016001820154815250508152602001906001019061062d565b50505050905090565b50805461071090610d85565b6000825580601f106107225750610741565b601f0160209004906000526020600020908101906107409190610850565b5b50565b82805461075090610d85565b90600052602060002090601f01602090048101928261077257600085556107b9565b82601f1061078b57803560ff19168380011785556107b9565b828001600101855582156107b9579182015b828111156107b857823582559160200191906001019061079d565b5b5090506107c69190610850565b5090565b8280546107d690610d85565b90600052602060002090601f0160209004810192826107f8576000855561083f565b82601f1061081157805160ff191683800117855561083f565b8280016001018555821561083f579182015b8281111561083e578251825591602001919060010190610823565b5b50905061084c9190610850565b5090565b5b80821115610869576000816000905550600101610851565b5090565b600061088061087b84610c44565b610c1f565b90508281526020810184848401111561089857600080fd5b6108a3848285610d19565b509392505050565b60008083601f8401126108bd57600080fd5b8235905067ffffffffffffffff8111156108d657600080fd5b6020830191508360018202830111156108ee57600080fd5b9250929050565b600082601f83011261090657600080fd5b813561091684826020860161086d565b91505092915050565b60008135905061092e81610f1e565b92915050565b60006020828403121561094657600080fd5b600082013567ffffffffffffffff81111561096057600080fd5b61096c848285016108f5565b91505092915050565b60006020828403121561098757600080fd5b60006109958482850161091f565b91505092915050565b6000806000604084860312156109b357600080fd5b60006109c18682870161091f565b935050602084013567ffffffffffffffff8111156109de57600080fd5b6109ea868287016108ab565b92509250509250925092565b6000610a028383610b14565b905092915050565b6000610a1582610c85565b610a1f8185610ca8565b935083602082028501610a3185610c75565b8060005b85811015610a6d5784840389528151610a4e85826109f6565b9450610a5983610c9b565b925060208a01995050600181019050610a35565b50829750879550505050505092915050565b6000610a8a82610c90565b610a948185610cb9565b9350610aa4818560208601610d28565b610aad81610ebe565b840191505092915050565b6000610ac382610c90565b610acd8185610cca565b9350610add818560208601610d28565b610ae681610ebe565b840191505092915050565b6000610afe602283610cca565b9150610b0982610ecf565b604082019050919050565b60006040830160008301518482036000860152610b318282610a7f565b9150506020830151610b466020860182610b51565b508091505092915050565b610b5a81610d0f565b82525050565b610b6981610d0f565b82525050565b60006020820190508181036000830152610b898184610a0a565b905092915050565b60006040820190508181036000830152610bab8185610ab8565b9050610bba6020830184610b60565b9392505050565b60006020820190508181036000830152610bda81610af1565b9050919050565b6000606082019050610bf66000830186610b60565b8181036020830152610c088185610ab8565b9050610c176040830184610b60565b949350505050565b6000610c29610c3a565b9050610c358282610db7565b919050565b6000604051905090565b600067ffffffffffffffff821115610c5f57610c5e610e8f565b5b610c6882610ebe565b9050602081019050919050565b6000819050602082019050919050565b600081519050919050565b600081519050919050565b6000602082019050919050565b600082825260208201905092915050565b600082825260208201905092915050565b600082825260208201905092915050565b6000610ce682610d0f565b9150610cf183610d0f565b925082821015610d0457610d03610e31565b5b828203905092915050565b6000819050919050565b82818337600083830152505050565b60005b83811015610d46578082015181840152602081019050610d2b565b83811115610d55576000848401525b50505050565b6000610d6682610d0f565b91506000821415610d7a57610d79610e31565b5b600182039050919050565b60006002820490506001821680610d9d57607f821691505b60208210811415610db157610db0610e60565b5b50919050565b610dc082610ebe565b810181811067ffffffffffffffff82111715610ddf57610dde610e8f565b5b80604052505050565b6000610df382610d0f565b91507fffffffffffffffffffffffffffffffffffffffffffffffffffffffffffffffff821415610e2657610e25610e31565b5b600182019050919050565b7f4e487b7100000000000000000000000000000000000000000000000000000000600052601160045260246000fd5b7f4e487b7100000000000000000000000000000000000000000000000000000000600052602260045260246000fd5b7f4e487b7100000000000000000000000000000000000000000000000000000000600052604160045260246000fd5b6000601f19601f8301169050919050565b7f4f6e6c79206f776e65722063616e2063616c6c20746869732066756e6374696f60008201527f6e21000000000000000000000000000000000000000000000000000000000000602082015250565b610f2781610d0f565b8114610f3257600080fd5b5056fea2646970667358221220ce8de4a831d6f23448267e02f20df8e2636c0c0337a369ca83bf2187e7467e6f64736f6c63430008040033",
  "immutableReferences": {},
  "source": "// SPDX-License-Identifier: MIT\r\npragma solidity >=0.5.13 <0.9.0;\r\n\r\n\r\n/**\r\n @title TweetFactory\r\n @author Van Tien NGUYEN\r\n @dev A contract dedicated to the creation of new tweet in the decentralised light-Twitter\r\n */\r\ncontract TweetFactory {\r\n\r\n    event NewTweet(uint256 id, string context, uint256 createdAt);\r\n\r\n    uint256 digits = 16;\r\n\tuint256 idModulus = 10**digits;\r\n\r\n    struct Tweet {\r\n        string context;\r\n        uint256 createdAt;\r\n    }\r\n\r\n    Tweet[] public tweets;\r\n\r\n    mapping(address => uint256) ownerTweetCount;\r\n    mapping(uint256 => address) tweetToOwner;\r\n\r\n    /**\r\n     * @dev A function that creates a new tweet with context\r\n     * @param _context The context of the tweet\r\n     */\r\n    function createTweet(string memory _context) public {\r\n        uint256 createdAt = block.timestamp;\r\n        tweets.push(\r\n            Tweet(_context, createdAt)\r\n        );\r\n        \r\n        uint256 id = tweets.length - 1;\r\n        tweetToOwner[id] = msg.sender;\r\n        ownerTweetCount[msg.sender]++;\r\n        emit NewTweet(id, _context, createdAt);\r\n    }\r\n\r\n    /**\r\n     * @dev A function that return all tweets\r\n     */\r\n    function readTweets() public view returns (Tweet[] memory) {\r\n        return tweets;\r\n    }\r\n\r\n    /**\r\n     * @dev A function that allow the owner to update his (her) tweet\r\n     * @param _id The id of the tweet\r\n     * @param _context The new context will be updated\r\n     */\r\n    function updateTweet(uint256 _id, string calldata _context) external {\r\n        require(\r\n            tweetToOwner[_id] == msg.sender,\r\n            \"Only owner can call this function!\"    \r\n        );\r\n        tweets[_id].context = _context;\r\n        tweets[_id].createdAt = block.timestamp;\r\n    }\r\n\r\n    /**\r\n     @dev A function that allow the owner to delete his (her) tweet\r\n     @param _id the id of the tweet\r\n     */\r\n    function deleteTweet(uint256 _id) external {\r\n        require(\r\n            tweetToOwner[_id] == msg.sender,\r\n            \"Only owner can call this function!\"    \r\n        );\r\n        ownerTweetCount[msg.sender]--;\r\n        delete tweetToOwner[_id];\r\n        delete tweets[_id];\r\n    }\r\n}",
  "sourcePath": "C:/Users/hoang/Desktop/lethao/epita/courses/blockchain/final_project/twitter/contracts/TweetFactory.sol",
  "compiler": {
    "name": "solc",
    "version": "0.8.4+commit.c7e474f2.Emscripten.clang"
  },
  "schemaVersion": "3.4.1",
  "updatedAt": "2021-05-26T19:45:48.194Z",
  "networkType": "ethereum",
  "devdoc": {
    "author": "Van Tien NGUYEN",
    "details": "A contract dedicated to the creation of new tweet in the decentralised light-Twitter",
    "kind": "dev",
    "methods": {
      "createTweet(string)": {
        "details": "A function that creates a new tweet with context",
        "params": {
          "_context": "The context of the tweet"
        }
      },
      "deleteTweet(uint256)": {
        "details": "A function that allow the owner to delete his (her) tweet",
        "params": {
          "_id": "the id of the tweet"
        }
      },
      "readTweets()": {
        "details": "A function that return all tweets"
      },
      "updateTweet(uint256,string)": {
        "details": "A function that allow the owner to update his (her) tweet",
        "params": {
          "_context": "The new context will be updated",
          "_id": "The id of the tweet"
        }
      }
    },
    "title": "TweetFactory",
    "version": 1
  },
  "userdoc": {
    "kind": "user",
    "methods": {},
    "version": 1
  }
}